:020000040800F2
:1000000000500020250A0008650900086D09000855
:10001000750900087D090008850900080000000036
:100020000000000000000000000000008D09000832
:100030009909000800000000A5090008B10900089E
:100040006D0A00086D0A00086D0A00086D0A0008B4
:100050006D0A00086D0A00086D0A00086D0A0008A4
:100060006D0A00086D0A00086D0A00086D0A000894
:100070006D0A00086D0A00086D0A00086D0A000884
:100080006D0A00086D0A00086D0A00086D0A000874
:100090006D0A00086D0A00086D0A00086D0A000864
:1000A0006D0A00086D0A00086D0A00086D0A000854
:1000B000BD0900086D0A00086D0A00086D0A0008F5
:1000C0006D0A00086D0A00086D0A00086D0A000834
:1000D0006D0A00086D0A00086D0A00086D0A000824
:1000E0006D0A00086D0A00086D0A00080000000093
:1000F0000000000000000000000000000000000000
:0C01000000000000000000005FF808F1A3
:10010C0010B5054C237833B9044B13B10448AFF345
:10011C0000800123237010BD0C00002000000000A3
:10012C00F426000808B5034B1BB103490348AFF391
:10013C00008008BD0000000010000020F42600081C
:10014C0080B58AB000AF786007F1140300221A6002
:10015C005A609A60DA607B681B68254A934243D1E7
:10016C00244BDB69234A43F00073D361214BDB69D9
:10017C0003F000733B613B691E4B9B691D4A43F0C6
:10018C00080393611B4B9B6903F00803FB60FB683E
:10019C004FF480737B610023BB610023FB6107F18B
:1001AC0014031946144801F0EDF84FF400737B6109
:1001BC000223BB6103233B6207F1140319460E486B
:1001CC0001F0E0F80D4B5B687B627B6A23F4C04363
:1001DC007B627B6A43F0E0637B627B6A43F480431F
:1001EC007B62064A7B6A536000BF2837BD4680BDE0
:1001FC000064004000100240000C0140000001406F
:10020C0080B58CB000AF0023BB610023FB610123E0
:10021C003B624FF400637B600023BB604FF47E4372
:10022C00FB6000233B6100237B6101237B623B1D50
:10023C001946194800F097FD034687F82F3097F8B8
:10024C002F30002B01D000F045FB0123BB610023B4
:10025C00FB6101233B624FF480537B600023BB6046
:10026C004FF47E43FB6000233B6101237B61012340
:10027C007B623B1D1946084800F075FD034687F864
:10028C002F3097F82F30002B01D000F023FB00BF4C
:10029C003037BD4680BD00BF2800002080B500AFC0
:1002AC0000F0E0FB00F0F4F900F0BCFA00F036FAD4
:1002BC0000F06AFAFFF7A4FF234800F01DFE034686
:1002CC00002B01D000F006FB12211F4800F027FF85
:1002DC000346002B01D000F0FDFA1C4801F036FE5D
:1002EC001B4B03221A701A4B00225A70184B002217
:1002FC005A80032000F0A4F94FF4FA6000F014FCCB
:10030C00002300220021012000F028F8114B1B785B
:10031C00DBB2002B0ED00F4B00221A7000F078F8D5
:10032C0000F0D0F80A4B5B8801339AB2084B5A8024
:10033C0000F07AF9084B1B78DBB2002BE6D0064BA9
:10034C0000221A70E2E700BF280000208000002085
:10035C0058000020540000205500002090B58DB0AE
:10036C0000AF0446084611461A462346FB71034665
:10037C00BB710B467B7113463B714023BB61002361
:10038C00FB6100237B6200233B620823BB620023DA
:10039C0087F82C30FB793B74BB797B747B79BB740D
:1003AC003B79FB74A5233B75154B1B785A1CD1B2BA
:1003BC00134A11707B7507F110030621184600F0E3
:1003CC00CDF80346BB750123FB7507F10C0307F150
:1003DC00100207F118010B4800F0D2FD0346002B68
:1003EC0005D1094B1B680133074A136004E0074B26
:1003FC001B680133054A136000BF3437BD4690BDFE
:10040C006C00002028000020600000206800002004
:10041C0080B58AB000AF83233B6100237B6100234E
:10042C00FB610023BB6108233B62002387F8243067
:10043C00204B1B689AB2204B9A80204B1B689AB2B7
:10044C001D4BDA801C4B1B783B721B4B5B787B7211
:10045C00194B5B881B0A9BB2DBB2BB72164B5B88D9
:10046C00DBB2FB72144B9B881B0A9BB2DBB23B7357
:10047C00114B9B88DBB27B730F4BDB881B0A9BB247
:10048C00DBB2BB730C4BDB88DBB2FB733B1D07F1A0
:10049C00080207F110010A4800F072FD0346002B18
:1004AC0004D1044B1B680133024A136000BF283788
:1004BC00BD4680BD60000020580000206400002074
:1004CC002800002080B582B000AF00F023FB7860DC
:1004DC0041F288333B601E4B1B79002B0CD01C4B1C
:1004EC001B687A68D31A3A689A4205D2184B0022D4
:1004FC001A71184B01225A70174B1B79002B0CD018
:10050C00154B1B687A68D31A3A689A4205D2124B7B
:10051C0000221A710F4B01225A700D4B1B79002BC4
:10052C0007D10D4B1B79002B03D10A4B02225A70B9
:10053C000AE0074B1B79002B06D0074B1B79002BCD
:10054C0002D0044B00225A7000BF0837BD4680BD54
:10055C0070000020580000207800002080B485B086
:10056C0000AF78600B46FB700023FB730023BB735A
:10057C0022E0BB7B7A6813441A78FB7B5340FB73F5
:10058C0000237B7312E097F90F30002B08DA97F9F0
:10059C000F305B005BB283F007035BB2FB7302E0CE
:1005AC00FB7B5B00FB737B7B01337B737B7B072BC0
:1005BC00E9D9BB7B0133BB73BA7BFB789A42D8D3A6
:1005CC00FB7B18461437BD4680BC704780B483B0A3
:1005DC0000AF78607B681B68B3F1804F16D10E4B6F
:1005EC001B6801330C4A13600C4B01221A700A4B26
:1005FC0019680B4BA3FB01239A0813469B00134469
:10060C00CA1A002A02D1074B01221A7000BF0C37FC
:10061C00BD4680BC704700BF500000205400002035
:10062C00CDCCCCCC5500002080B500AF4FF40051A0
:10063C00024801F043F800BF80BD00BF001001402C
:10064C0080B584B000AF0346FB710023FB7314E04C
:10065C0000224FF400510D4801F018F8322000F040
:10066C0063FA01224FF40051084801F00FF83220D0
:10067C0000F05AFAFB7B0133FB73FA7BFB799A424D
:10068C00E6D300BF00BF1037BD4680BD001001404F
:10069C0080B590B000AF07F118032822002118464E
:1006AC0001F0F6FF3B1D00221A605A609A60DA6076
:1006BC001A610123BB614FF48033FB6100233B6261
:1006CC000123BB6202237B634FF48033BB634FF483
:1006DC00E013FB6307F11803184601F009F8034611
:1006EC00002B01D000F0F6F80F237B600223BB60D7
:1006FC000023FB604FF480633B6100237B613B1D57
:10070C000221184601F076FA0346002B01D000F0C6
:10071C00E1F800BF4037BD4680BD000080B500AF9A
:10072C00174B184A1A60164B09225A60144B0022B8
:10073C009A60134B0022DA60114B4FF4A0221A611D
:10074C000F4B00225A610E4B00221A760C4B0122E1
:10075C005A760B4B01229A76094B0122DA76084B1A
:10076C0000221A77064B00225A77054800F000FA4F
:10077C000346002B01D000F0ADF800BF80BD00BFD8
:10078C00280000200064004080B586B000AF07F15F
:10079C00080300221A605A609A60DA603B46002215
:1007AC001A605A601E4B4FF080421A601C4B41F687
:1007BC001F425A601A4B00229A60194B42F20F7278
:1007CC00DA60174B00221A61154B80229A6114488B
:1007DC0001F06CFB0346002B01D000F07BF84FF4CA
:1007EC008053BB6007F1080319460D4801F0F0FC7B
:1007FC000346002B01D000F06DF800233B60002372
:10080C007B603B461946064801F0D2FE0346002B9E
:10081C0001D000F05FF800BF1837BD4680BD00BFA7
:10082C008000002080B588B000AF07F110030022D3
:10083C001A605A609A60DA60244B9B69234A43F031
:10084C0010039361214B9B6903F01003FB60FB6861
:10085C001E4B9B691D4A43F0200393611B4B9B6904
:10086C0003F02003BB60BB68184B9B69174A43F02D
:10087C0004039361154B9B6903F004037B607B6855
:10088C00124B9B69114A43F0080393610F4B9B6910
:10089C0003F008033B603B6801224FF400510C4805
:1008AC0000F0F4FE4FF400533B6101237B61002305
:1008BC00BB610223FB6107F110031946044800F0E9
:1008CC0061FD00BF2037BD4680BD00BF0010024057
:1008DC000010014080B500AF72B600BF4FF400515C
:1008EC00034800F0EBFE642000F01EF900BFF5E7B2
:1008FC000010014080B485B000AF154B9B69144AC1
:10090C0043F001039361124B9B6903F00103BB603D
:10091C00BB680F4BDB690E4A43F08053D3610C4B21
:10092C00DB6903F080537B607B680A4B5B68FB6080
:10093C00FB6823F0E063FB60FB6843F08063FB60C3
:10094C00044AFB68536000BF1437BD4680BC704737
:10095C00001002400000014080B400AF00BFFDE772
:10096C0080B400AF00BFFDE780B400AF00BFFDE76F
:10097C0080B400AF00BFFDE780B400AF00BFFDE75F
:10098C0080B400AF00BFBD4680BC704780B400AFE0
:10099C0000BFBD4680BC704780B400AF00BFBD46F1
:1009AC0080BC704780B500AF00F0A2F800BF80BDDE
:1009BC0080B500AF024801F01BFB00BF80BD00BF3B
:1009CC008000002080B400AF00BFBD4680BC7047E3
:1009DC0080B584B000AF78607B681B68B3F1804F42
:1009EC0013D10C4BDB690B4A43F00103D361094B68
:1009FC00DB6903F00103FB60FB68002200211C2073
:100A0C0000F089FC1C2000F0A2FC00BF1037BD4692
:100A1C0080BD00BF00100240FFF7D4FF0B480C490B
:100A2C000C4A002302E0D458C4500433C4188C423E
:100A3C00F9D3094A094C002301E013600432A242A5
:100A4C00FBD301F02DFEFFF729FC704700000020BE
:100A5C000C000020382700080C000020CC000020DF
:100A6C00FEE7000080B500AF084B1B68074A43F057
:100A7C0010031360032000F043FC0F2000F008F873
:100A8C00FFF738FF0023184680BD00BF002002404E
:100A9C0080B582B000AF7860124B1A68124B1B788D
:100AAC0019464FF47A73B3FBF1F3B2FBF3F3184628
:100ABC0000F05BFC0346002B01D001230EE07B68A9
:100ACC000F2B0AD8002279684FF0FF3000F023FC7E
:100ADC00064A7B681360002300E0012318460837A0
:100AEC00BD4680BD0000002008000020040000204E
:100AFC0080B400AF054B1B781A46054B1B6813449A
:100B0C00034A136000BFBD4680BC7047080000203C
:100B1C00C800002080B400AF024B1B681846BD46CD
:100B2C0080BC7047C800002080B584B000AF7860EE
:100B3C00FFF7F0FFB8607B68FB60FB68B3F1FF3F29
:100B4C0005D00A4B1B781A46FB681344FB6000BFA8
:100B5C00FFF7E0FF0246BB68D31AFA689A42F7D84F
:100B6C0000BF00BF1037BD4680BD00BF080000208D
:100B7C0080B584B000AF78607B68002B01D1012375
:100B8C00EDE07B6893F82030DBB2002B02D1786863
:100B9C00FFF7D6FA7B681B681A687B681B6842F003
:100BAC0001021A60FFF7B6FFF86012E0FFF7B2FF20
:100BBC000246FB68D31A0A2B0BD97B685B6A43F499
:100BCC0000327B685A627B68052283F8202001235F
:100BDC00C5E07B681B685B6803F00103002BE5D064
:100BEC007B681B681A687B681B6822F002021A601B
:100BFC00FFF790FFF86012E0FFF78CFF0246FB68EE
:100C0C00D31A0A2B0BD97B685B6A43F400327B68DE
:100C1C005A627B68052283F8202001239FE07B68C1
:100C2C001B685B6803F00203002BE5D17B681B7E1D
:100C3C00012B08D17B681B681A687B681B6842F023
:100C4C0080021A6007E07B681B681A687B681B6867
:100C5C0022F080021A607B685B7E012B08D17B68D6
:100C6C001B681A687B681B6842F040021A6007E038
:100C7C007B681B681A687B681B6822F040021A604C
:100C8C007B689B7E012B08D17B681B681A687B688C
:100C9C001B6842F020021A6007E07B681B681A6828
:100CAC007B681B6822F020021A607B68DB7E012BBC
:100CBC0008D17B681B681A687B681B6822F01002DD
:100CCC001A6007E07B681B681A687B681B6842F037
:100CDC0010021A607B681B7F012B08D17B681B6894
:100CEC001A687B681B6842F008021A6007E07B6890
:100CFC001B681A687B681B6822F008021A607B6804
:100D0C005B7F012B08D17B681B681A687B681B68AA
:100D1C0042F004021A6007E07B681B681A687B6863
:100D2C001B6822F004021A607B689A687B68DB6897
:100D3C001A437B681B691A437B685B6942EA0301AF
:100D4C007B685B685A1E7B681B680A43DA617B68A8
:100D5C0000225A627B68012283F820200023184667
:100D6C001037BD4680BD80B487B000AF7860396065
:100D7C007B681B687B617B6893F82030FB74FB7C81
:100D8C00012B03D0FB7C022B40F0AA807B69D3F8AB
:100D9C00003243F001027B69C3F800223B685B69B7
:100DAC0003F01F03012202FA03F3FB607B69D3F803
:100DBC001C22FB68DB431A407B69C3F81C223B688E
:100DCC00DB69002B23D17B69D3F80C22FB68DB4356
:100DDC001A407B69C3F80C223B68DB6819043B683A
:100DEC005B689BB23A68526919437B69483243F895
:100DFC0032103B689B6819043B681B689AB23B68CD
:100E0C005B690A4379694833DB000B445A603B68E1
:100E1C00DB69012B22D17B69D3F80C22FB681A43C6
:100E2C007B69C3F80C223B681B6819043B685B6840
:100E3C009BB23A68526919437B69483243F83210C5
:100E4C003B689B6819043B68DB689AB23B685B693A
:100E5C000A4379694833DB000B445A603B689B6951
:100E6C00002B09D17B69D3F80422FB68DB431A40C1
:100E7C007B69C3F8042207E07B69D3F80422FB6882
:100E8C001A437B69C3F804223B681B69002B09D108
:100E9C007B69D3F81422FB68DB431A407B69C3F8E7
:100EAC00142207E07B69D3F81422FB681A437B6990
:100EBC00C3F814223B681B6A012B07D17B69D3F85A
:100ECC001C22FB681A437B69C3F81C227B69D3F88C
:100EDC00003223F001027B69C3F80022002306E0F4
:100EEC007B685B6A43F480227B685A620123184654
:100EFC001C37BD4680BC704780B584B000AF7860AD
:100F0C007B6893F82030DBB2012B2ED17B68022258
:100F1C0083F820207B681B681A687B681B6822F0AA
:100F2C0001021A60FFF7F6FDF86012E0FFF7F2FD20
:100F3C000246FB68D31A0A2B0BD97B685B6A43F415
:100F4C0000327B685A627B68052283F820200123DB
:100F5C0012E07B681B685B6803F00103002BE5D192
:100F6C007B6800225A62002306E07B685B6A43F4CC
:100F7C0000227B685A62012318461037BD4680BD9B
:100F8C0080B489B000AFF860B9607A603B60FB68F0
:100F9C0093F82030FB77FB681B689B68BB61FB7F79
:100FAC00012B03D0FB7F022B40F0AD80BB6903F01B
:100FBC008063002B0AD1BB6903F00063002B05D1C1
:100FCC00BB6903F08053002B00F09580BB691B0EAE
:100FDC0003F003037B6101227B699A403B681A6032
:100FEC00BB689B68002B0DD1BB681B685A05BB689E
:100FFC00DB68F96809681A437B6918331B010B44D9
:10100C001A600FE0BB685B68DA00BB689B681A4328
:10101C00BB68DB68F96809681A437B6918331B01E4
:10102C000B441A60FB681968BB681A697B69183332
:10103C001B010B4404331A60BB681B7D012B11D1BF
:10104C00FB681A687B6918331B01134404331B6853
:10105C00FA68116843F480727B6918331B010B44E6
:10106C0004331A607B6807331B781A067B680633D7
:10107C001B781B041A437B6805331B781B02134334
:10108C007A68043212781046FA68116843EA000252
:10109C007B691B010B4403F5C6731A607B68033331
:1010AC001B781A067B6802331B781B041A437B6877
:1010BC0001331B781B0213437A6812781046FA68C6
:1010CC00116843EA00027B691B010B4403F5C473EE
:1010DC001A60FB681A687B6918331B0113441B6880
:1010EC00FA68116843F001027B6918331B010B4449
:1010FC001A6000230EE0FB685B6A43F40012FB6885
:10110C005A62012306E0FB685B6A43F48022FB68A9
:10111C005A62012318462437BD4680BC704780B400
:10112C0085B000AF786039607B6893F82030FB7332
:10113C00FB7B012B02D0FB7B022B09D17B681B684C
:10114C0059697B681B683A680A435A61002306E0B8
:10115C007B685B6A43F480227B685A6201231846E1
:10116C001437BD4680BC704780B485B000AF786042
:10117C007B6803F00703FB600C4BDB68BB60BA6851
:10118C004FF6FF031340BB60FB681A02BB681343A6
:10119C0043F0BF6343F40033BB60044ABB68D360C5
:1011AC0000BF1437BD4680BC704700BF00ED00E0A7
:1011BC0080B400AF044BDB681B0A03F0070318462E
:1011CC00BD4680BC704700BF00ED00E080B483B02A
:1011DC0000AF0346FB7197F90730002B0BDBFB7953
:1011EC0003F01F02064997F907305B09012000FA4A
:1011FC0002F241F8232000BF0C37BD4680BC70477B
:10120C0000E100E080B483B000AF03463960FB71AD
:10121C0097F90730002B0ADB3B68DAB20C4997F9D7
:10122C0007301201D2B20B4483F800230AE03B686A
:10123C00DAB20849FB7903F00F03043B1201D2B276
:10124C000B441A7600BF0C37BD4680BC704700BFFC
:10125C0000E100E000ED00E080B489B000AFF86080
:10126C00B9607A60FB6803F00703FB61FB69C3F1AB
:10127C000703042B28BF0423BB61FB690433062B33
:10128C0002D9FB69033B00E000237B614FF0FF3286
:10129C00BB6902FA03F3DA43BB681A407B699A40D4
:1012AC004FF0FF317B6901FA03F3D9437B680B40A4
:1012BC00134318462437BD4680BC704780B582B0B6
:1012CC0000AF78607B68013BB3F1807F01D30123D1
:1012DC000FE00A4A7B68013B53600F214FF0FF304F
:1012EC00FFF790FF054B00229A60044B07221A600F
:1012FC00002318460837BD4680BD00BF10E000E053
:10130C0080B582B000AF78607868FFF72DFF00BF22
:10131C000837BD4680BD80B586B000AF0346B960C6
:10132C007A60FB7300237B61FFF742FF78617A6878
:10133C00B9687869FFF790FF024697F90F301146AC
:10134C001846FFF75FFF00BF1837BD4680BD80B55C
:10135C0082B000AF0346FB7197F907301846FFF7D0
:10136C0035FF00BF0837BD4680BD80B582B000AFE9
:10137C0078607868FFF7A2FF034618460837BD4629
:10138C0080BD000080B48BB000AF78603960002362
:10139C007B6200233B6269E101227B6A02FA03F360
:1013AC00FB613B681B68FA691340BB61BA69FB6956
:1013BC009A4240F058813B685B689A4A93425ED0EF
:1013CC00984A934275D8984A934258D0964A934279
:1013DC006FD8964A934252D0944A934269D8944A11
:1013EC0093424CD0924A934263D8924A934246D04D
:1013FC00904A93425DD8122B2AD8122B59D801A2AD
:10140C0052F823F08B1400086514000877140008B8
:10141C00B9140008BF140008BF140008BF1400085A
:10142C00BF140008BF140008BF140008BF14000844
:10143C00BF140008BF140008BF140008BF14000834
:10144C00BF140008BF1400086D14000881140008B4
:10145C00794A934213D02CE03B68DB683B6229E06D
:10146C003B68DB6804333B6224E03B68DB68083391
:10147C003B621FE03B68DB680C333B621AE03B6865
:10148C009B68002B02D104233B6213E03B689B68F2
:10149C00012B05D108233B627B68FA691A6109E0CC
:1014AC0008233B627B68FA695A6103E000233B62C4
:1014BC0000E000BFBB69FF2B01D87B6801E07B68B3
:1014CC0004337B61BB69FF2B02D87B6A9B0002E073
:1014DC007B6A083B9B003B617B691A680F213B6967
:1014EC0001FA03F3DB431A40396A3B6901FA03F34F
:1014FC001A437B691A603B685B6803F08053002BCE
:10150C0000F0B1804D4B9B694C4A43F00103936151
:10151C004A4B9B6903F00103BB60BB68484A7B6A7A
:10152C009B08023352F82330FB607B6A03F0030301
:10153C009B000F2202FA03F3DB43FA681340FB60B3
:10154C007B68404A934213D07B683F4A93420DD04C
:10155C007B683E4A934207D07B683D4A934201D157
:10156C00032306E0042304E0022302E0012300E04D
:10157C0000237A6A02F0030292009340FA68134344
:10158C00FB602F497B6A9B080233FA6841F82320E1
:10159C003B685B6803F48013002B06D02D4B9A68D4
:1015AC002C49BB6913438B6006E02A4B9A68BB69D4
:1015BC00DB43284913408B603B685B6803F40013E2
:1015CC00002B06D0234BDA682249BB691343CB604E
:1015DC0006E0204BDA68BB69DB431E491340CB6045
:1015EC003B685B6803F40033002B06D0194B5A6838
:1015FC001849BB6913434B6006E0164B5A68BB692C
:10160C00DB43144913404B603B685B6803F4803345
:10161C00002B21D00F4B1A680E49BB6913430B608A
:10162C0021E000BF00003210000031100000221039
:10163C0000002110000012100000111000100240D8
:10164C000000014000080140000C01400010014066
:10165C0000140140000401400B4B1A68BB69DB43CA
:10166C00094913400B607B6A01337B623B681A6843
:10167C007B6A22FA03F3002B7FF48EAE00BF00BF0F
:10168C002C37BD4680BC70470004014080B483B049
:10169C0000AF78600B467B8013467B707B78002B09
:1016AC0003D07A887B681A6103E07B881A047B6814
:1016BC001A6100BF0C37BD4680BC704780B485B042
:1016CC0000AF78600B467B807B68DB68FB607A88B8
:1016DC00FB6813401A04FB68D9437B880B401A4300
:1016EC007B681A6100BF1437BD4680BC7047000090
:1016FC0080B586B000AF78607B68002B01D10123E8
:10170C0072E27B681B6803F00103002B00F08780FA
:10171C00924B5B6803F00C03042B0CD08F4B5B6873
:10172C0003F00C03082B12D18C4B5B6803F4803351
:10173C00B3F5803F0BD1894B1B6803F40033002BAE
:10174C006CD07B685B68002B68D101234CE27B6812
:10175C005B68B3F5803F06D1804B1B687F4A43F42E
:10176C00803313602EE07B685B68002B0CD17B4BC5
:10177C001B687A4A23F480331360784B1B68774AD2
:10178C0023F4802313601DE07B685B68B3F5A02F06
:10179C000CD1724B1B68714A43F4802313606F4B5E
:1017AC001B686E4A43F4803313600BE06B4B1B6871
:1017BC006A4A23F480331360684B1B68674A23F42E
:1017CC00802313607B685B68002B13D0FFF7A2F9B2
:1017DC00386108E0FFF79EF902463B69D31A642B87
:1017EC0001D9032300E25D4B1B6803F40033002B8B
:1017FC00F0D014E0FFF78EF9386108E0FFF78AF9B2
:10180C0002463B69D31A642B01D90323ECE1534BF9
:10181C001B6803F40033002BF0D100E000BF7B68A1
:10182C001B6803F00203002B63D04C4B5B6803F086
:10183C000C03002B0BD0494B5B6803F00C03082BFB
:10184C001CD1464B5B6803F48033002B16D1434B01
:10185C001B6803F00203002B05D07B681B69012B6E
:10186C0001D00123C0E13D4B1B6823F0F8027B68DB
:10187C005B69DB00394913430B603AE07B681B69F9
:10188C00002B20D0364B01221A60FFF743F9386148
:10189C0008E0FFF73FF902463B69D31A022B01D946
:1018AC000323A1E12D4B1B6803F00203002BF0D0A6
:1018BC002A4B1B6823F0F8027B685B69DB00274925
:1018CC0013430B6015E0264B00221A60FFF722F938
:1018DC00386108E0FFF71EF902463B69D31A022B68
:1018EC0001D9032380E11D4B1B6803F00203002B7D
:1018FC00F0D17B681B6803F00803002B3AD07B689F
:10190C009B69002B19D0174B01221A60FFF702F9C3
:10191C00386108E0FFF7FEF802463B69D31A022B48
:10192C0001D9032360E10D4B5B6A03F00203002B2A
:10193C00F0D0012000F09CFA1CE00A4B00221A6047
:10194C00FFF7E8F838610FE0FFF7E4F802463B696F
:10195C00D31A022B08D9032346E100BF0010024022
:10196C000000424280044242924B5B6A03F0020345
:10197C00002BE9D17B681B6803F00403002B00F0FB
:10198C00A6800023FB758B4BDB6903F08053002B87
:10199C000DD1884BDB69874A43F08053D361854B6B
:1019AC00DB6903F08053BB60BB680123FB75824B82
:1019BC001B6803F48073002B18D17F4B1B687E4A85
:1019CC0043F480731360FFF7A5F8386108E0FFF764
:1019DC00A1F802463B69D31A642B01D9032303E116
:1019EC00754B1B6803F48073002BF0D07B68DB68AD
:1019FC00012B06D16F4B1B6A6E4A43F00103136235
:101A0C002DE07B68DB68002B0CD16A4B1B6A694AA2
:101A1C0023F001031362674B1B6A664A23F004032D
:101A2C0013621CE07B68DB68052B0CD1614B1B6AD5
:101A3C00604A43F0040313625E4B1B6A5D4A43F039
:101A4C00010313620BE05B4B1B6A5A4A23F0010340
:101A5C001362584B1B6A574A23F0040313627B68CA
:101A6C00DB68002B15D0FFF755F838610AE0FFF75B
:101A7C0051F802463B69D31A41F28832934201D99C
:101A8C000323B1E04B4B1B6A03F00203002BEED097
:101A9C0014E0FFF73FF838610AE0FFF73BF8024625
:101AAC003B69D31A41F28832934201D903239BE05C
:101ABC00404B1B6A03F00203002BEED1FB7D012B84
:101ACC0005D13C4BDB693B4A23F08053D3617B68E7
:101ADC00DB69002B00F08780364B5B6803F00C034E
:101AEC00082B61D07B68DB69022B46D1334B00227B
:101AFC001A60FFF70FF8386108E0FFF70BF80246A1
:101B0C003B69D31A022B01D903236DE0294B1B68C7
:101B1C0003F00073002BF0D17B681B6AB3F5803F98
:101B2C0008D1244B5B6823F400327B689B68214905
:101B3C0013434B601F4B5B6823F474127B68196A68
:101B4C007B685B6A0B431B4913434B601B4B0122A5
:101B5C001A60FEF7DFFF386108E0FEF7DBFF024694
:101B6C003B69D31A022B01D903233DE0114B1B68AF
:101B7C0003F00073002BF0D035E0104B00221A60FC
:101B8C00FEF7C8FF386108E0FEF7C4FF02463B6968
:101B9C00D31A022B01D9032326E0064B1B6803F052
:101BAC000073002BF0D11EE07B68DB69012B07D1A1
:101BBC00012319E000100240007000406000424216
:101BCC000B4B5B68FB60FB6803F480327B681B6A21
:101BDC009A4206D1FB6803F470127B685B6A9A42E6
:101BEC0001D0012300E0002318461837BD4680BD04
:101BFC000010024080B584B000AF786039607B681B
:101C0C00002B01D10123D0E06A4B1B6803F00703C2
:101C1C003A689A4210D9674B1B6823F00702654952
:101C2C003B6813430B60634B1B6803F007033A6874
:101C3C009A4201D00123B8E07B681B6803F00203D1
:101C4C00002B20D07B681B6803F00403002B05D00D
:101C5C00594B5B68584A43F4E06353607B681B68DC
:101C6C0003F00803002B05D0534B5B68524A43F436
:101C7C0060535360504B5B6823F0F0027B689B68A9
:101C8C004D4913434B607B681B6803F00103002B29
:101C9C0040D07B685B68012B07D1474B1B6803F472
:101CAC000033002B15D101237FE07B685B68022B8E
:101CBC0007D1414B1B6803F00073002B09D10123A2
:101CCC0073E03D4B1B6803F00203002B01D1012391
:101CDC006BE0394B5B6823F003027B685B68364929
:101CEC0013434B60FEF716FFF8600AE0FEF712FF95
:101CFC000246FB68D31A41F28832934201D903237E
:101D0C0053E02D4B5B6803F00C027B685B689B0017
:101D1C009A42EBD1274B1B6803F007033A689A42AF
:101D2C0010D2244B1B6823F0070222493B68134353
:101D3C000B60204B1B6803F007033A689A4201D0F2
:101D4C00012332E07B681B6803F00403002B08D0EE
:101D5C00194B5B6823F4E0627B68DB68164913431C
:101D6C004B607B681B6803F00803002B09D0124BF7
:101D7C005B6823F460527B681B69DB000E491343DC
:101D8C004B6000F021F802460B4B5B681B0903F01B
:101D9C000F030A49CB5C22FA03F3094A1360094B7F
:101DAC001B681846FEF774FE002318461037BD4614
:101DBC0080BD00BF00200240001002400C2700082C
:101DCC00000000200400002080B487B000AF002386
:101DDC00FB600023BB6000237B6100237B6000233E
:101DEC003B611E4B5B68FB60FB6803F00C03042B30
:101DFC0002D0082B03D027E0194B3B6127E0FB688E
:101E0C009B0C03F00F03174AD35C7B60FB6803F455
:101E1C008033002B10D0114B5B685B0C03F001037B
:101E2C00114AD35CBB607B680D4A03FB02F2BB68B2
:101E3C00B2FBF3F37B6104E07B680C4A02FB03F317
:101E4C007B617B693B6102E0054B3B6100BF3B69F9
:101E5C0018461C37BD4680BC704700BF00100240BE
:101E6C0000127A001C2700082C27000800093D00EE
:101E7C0080B485B000AF78600A4B1B680A4AA2FB9D
:101E8C0003235B0A7A6802FB03F3FB6000BFFB6869
:101E9C005A1EFA60002BF9D100BF00BF1437BD46A3
:101EAC0080BC704700000020D34D621080B582B01A
:101EBC0000AF78607B68002B01D1012341E07B6887
:101ECC0093F83D30DBB2002B06D17B68002283F8FF
:101EDC003C207868FEF77CFD7B68022283F83D206D
:101EEC007B681A687B6804331946104600F05CFA6C
:101EFC007B68012283F846207B68012283F83E2010
:101F0C007B68012283F83F207B68012283F8402004
:101F1C007B68012283F841207B68012283F84220F0
:101F2C007B68012283F843207B68012283F84420DC
:101F3C007B68012283F845207B68012283F83D20D1
:101F4C00002318460837BD4680BD000080B485B01C
:101F5C0000AF78607B6893F83D30DBB2012B01D089
:101F6C0001233AE07B68022283F83D207B681B68E2
:101F7C00DA687B681B6842F00102DA607B681B68D8
:101F8C00184A93420ED07B681B68B3F1804F09D07E
:101F9C007B681B68144A934204D07B681B68134A05
:101FAC00934211D17B681B689B6803F00703FB60AD
:101FBC00FB68062B10D07B681B681A687B681B6853
:101FCC0042F001021A6007E07B681B681A687B68A4
:101FDC001B6842F001021A60002318461437BD46F4
:101FEC0080BC7047002C01400004004000080040F9
:101FFC0080B584B000AF78607B681B68DB68FB60E1
:10200C007B681B681B69BB60BB6803F00203002B79
:10201C0020D0FB6803F00203002B1BD07B681B68ED
:10202C006FF002021A617B6801221A777B681B68C9
:10203C009B6903F00303002B03D0786800F098F938
:10204C0005E0786800F08BF9786800F09AF97B6805
:10205C0000221A77BB6803F00403002B20D0FB6826
:10206C0003F00403002B1BD07B681B686FF0040289
:10207C001A617B6802221A777B681B689B6903F4E0
:10208C004073002B03D0786800F072F905E0786893
:10209C0000F065F9786800F074F97B6800221A7713
:1020AC00BB6803F00803002B20D0FB6803F0080387
:1020BC00002B1BD07B681B686FF008021A617B68D1
:1020CC0004221A777B681B68DB6903F00303002B7F
:1020DC0003D0786800F04CF905E0786800F03FF91F
:1020EC00786800F04EF97B6800221A77BB6803F021
:1020FC001003002B20D0FB6803F01003002B1BD027
:10210C007B681B686FF010021A617B6808221A77D3
:10211C007B681B68DB6903F44073002B03D0786881
:10212C0000F026F905E0786800F019F9786800F0FD
:10213C0028F97B6800221A77BB6803F00103002B97
:10214C000CD0FB6803F00103002B07D07B681B68E5
:10215C006FF001021A617868FEF738FABB6803F079
:10216C008003002B0CD0FB6803F08003002B07D0FE
:10217C007B681B686FF080021A61786800F07FFA48
:10218C00BB6803F04003002B0CD0FB6803F040034A
:10219C00002B07D07B681B686FF040021A617868CF
:1021AC0000F0F8F8BB6803F02003002B0CD0FB68A0
:1021BC0003F02003002B07D07B681B686FF0200214
:1021CC001A61786800F052FA00BF1037BD4680BD26
:1021DC0080B584B000AF786039600023FB737B68F6
:1021EC0093F83C30012B01D10223B4E07B6801222F
:1021FC0083F83C207B68022283F83D207B681B68B7
:10220C009B68BB60BB6823F07703BB60BB6823F49F
:10221C007F43BB607B681B68BA689A603B681B682D
:10222C00B3F5005F3ED0B3F5005F00F28780B3F5E5
:10223C00805F00F08680B3F5805F7FD8702B1AD05A
:10224C00702B7BD8602B50D0602B77D8502B3CD088
:10225C00502B73D8402B58D0402B6FD8302B64D0D8
:10226C00302B6BD8202B60D0202B67D8002B5CD068
:10227C00102B5AD062E07B6818683B6899683B6801
:10228C005A683B68DB6800F074F97B681B689B68D4
:10229C00BB60BB6843F07703BB607B681B68BA68A4
:1022AC009A604FE07B6818683B6899683B685A688D
:1022BC003B68DB6800F05DF97B681B689A687B689B
:1022CC001B6842F480429A603CE07B6818683B686B
:1022DC0059683B68DB681A4600F0D4F87B681B68C9
:1022EC005021184600F02BF92CE07B6818683B68ED
:1022FC0059683B68DB681A4600F0F2F87B681B688B
:10230C006021184600F01BF91CE07B6818683B68DC
:10231C0059683B68DB681A4600F0B4F87B681B68A8
:10232C004021184600F00BF90CE07B681A683B68FA
:10233C001B681946104600F002F903E00123FB73F9
:10234C0000E000BF7B68012283F83D207B680022FF
:10235C0083F83C20FB7B18461037BD4680BD80B40B
:10236C0083B000AF786000BF0C37BD4680BC7047AF
:10237C0080B483B000AF786000BF0C37BD4680BC22
:10238C00704780B483B000AF786000BF0C37BD4697
:10239C0080BC704780B483B000AF786000BF0C374E
:1023AC00BD4680BC7047000080B485B000AF78603B
:1023BC0039607B681B68FB607B682F4A93420BD0AB
:1023CC007B68B3F1804F07D07B682C4A934203D0D3
:1023DC007B682B4A934208D1FB6823F07003FB60A7
:1023EC003B685B68FA681343FB607B68224A934244
:1023FC000BD07B68B3F1804F07D07B681F4A9342A8
:10240C0003D07B681E4A934208D1FB6823F44073C7
:10241C00FB603B68DB68FA681343FB60FB6823F0E6
:10242C0080023B685B691343FB607B68FA681A6047
:10243C003B689A687B68DA623B681A687B689A62C8
:10244C007B680D4A934203D13B681A697B681A6317
:10245C007B6801225A617B681B6903F00103002B26
:10246C0005D07B681B6923F001027B681A6100BFF1
:10247C001437BD4680BC7047002C0140000400405E
:10248C000008004080B487B000AFF860B9607A6093
:10249C00FB681B6A7B61FB681B6A23F00102FB680B
:1024AC001A62FB689B693B613B6923F0F0033B615B
:1024BC007B681B013A6913433B617B6923F00A0378
:1024CC007B617A69BB6813437B61FB683A699A61EB
:1024DC00FB687A691A6200BF1C37BD4680BC704726
:1024EC0080B487B000AFF860B9607A60FB681B6A93
:1024FC007B61FB681B6A23F01002FB681A62FB68A5
:10250C009B693B613B6923F470433B617B681B0314
:10251C003A6913433B617B6923F0A0037B61BB6881
:10252C001B017A6913437B61FB683A699A61FB680A
:10253C007A691A6200BF1C37BD4680BC704780B4F4
:10254C0085B000AF786039607B689B68FB60FB6886
:10255C0023F07003FB603A68FB68134343F00703F6
:10256C00FB607B68FA689A6000BF1437BD4680BC7C
:10257C00704780B487B000AFF860B9607A603B6098
:10258C00FB689B687B617B6923F47F437B613B68C1
:10259C001A027B681A43BB6813437A6913437B6145
:1025AC00FB687A699A6000BF1C37BD4680BC7047D7
:1025BC0080B485B000AF786039607B6893F83C30AC
:1025CC00012B01D1022346E07B68012283F83C20D9
:1025DC007B68022283F83D207B681B685B68FB608C
:1025EC007B681B689B68BB60FB6823F07003FB6017
:1025FC003B681B68FA681343FB607B681B68FA68CE
:10260C005A607B681B68164A93420ED07B681B6825
:10261C00B3F1804F09D07B681B68124A934204D0F7
:10262C007B681B68104A93420CD1BB6823F0800373
:10263C00BB603B685B68BA681343BB607B681B6814
:10264C00BA689A607B68012283F83D207B6800227F
:10265C0083F83C20002318461437BD4680BC7047D5
:10266C00002C0140000400400008004080B483B0FE
:10267C0000AF786000BF0C37BD4680BC704780B49B
:10268C0083B000AF786000BF0C37BD4680BC70478C
:10269C0003460244934200D1704703F8011BF9E74B
:1026AC0070B500260C4D0D4C641BA410A64209D12C
:1026BC0000F01AF800260A4D0A4C641BA410A6421E
:1026CC0005D170BD55F8043B98470136EEE755F837
:1026DC00043B98470136F2E7302700083027000802
:1026EC003027000834270008F8B500BFF8BC08BC38
:1026FC009E467047F8B500BFF8BC08BC9E467047B4
:10270C000000000000000000010203040607080995
:10271C0002030405060708090A0B0C0D0E0F101016
:04272C0001020000A6
:04273000310100086B
:042734000D0100088B
:0C27380000127A001000000001000000F8
:0400000508000A25C0
:00000001FF
